{
  "_format": "hh-sol-artifact-1",
  "contractName": "MetaExchange",
  "sourceName": "contracts/MetaExchange.sol",
  "abi": [
    {
      "inputs": [
        {
          "internalType": "address",
          "name": "_wethAddress",
          "type": "address"
        },
        {
          "internalType": "address[]",
          "name": "_allowedAddresses",
          "type": "address[]"
        },
        {
          "internalType": "address[]",
          "name": "_priceFeedAddresses",
          "type": "address[]"
        },
        {
          "internalType": "uint256[]",
          "name": "_mockPrices",
          "type": "uint256[]"
        },
        {
          "internalType": "address",
          "name": "peggyAddress",
          "type": "address"
        }
      ],
      "stateMutability": "nonpayable",
      "type": "constructor"
    },
    {
      "inputs": [],
      "name": "SECONDS_PER_YEAR",
      "outputs": [
        {
          "internalType": "uint32",
          "name": "",
          "type": "uint32"
        }
      ],
      "stateMutability": "view",
      "type": "function"
    },
    {
      "inputs": [
        {
          "internalType": "uint256",
          "name": "offerIndex",
          "type": "uint256"
        }
      ],
      "name": "acceptOffer",
      "outputs": [],
      "stateMutability": "nonpayable",
      "type": "function"
    },
    {
      "inputs": [
        {
          "internalType": "address",
          "name": "",
          "type": "address"
        }
      ],
      "name": "allowedAddresses",
      "outputs": [
        {
          "internalType": "bool",
          "name": "",
          "type": "bool"
        }
      ],
      "stateMutability": "view",
      "type": "function"
    },
    {
      "inputs": [
        {
          "internalType": "uint256",
          "name": "offerIndex",
          "type": "uint256"
        }
      ],
      "name": "cancelOffer",
      "outputs": [],
      "stateMutability": "nonpayable",
      "type": "function"
    },
    {
      "inputs": [
        {
          "internalType": "address",
          "name": "_nftCollection",
          "type": "address"
        }
      ],
      "name": "getFloorPrice",
      "outputs": [
        {
          "internalType": "uint256",
          "name": "",
          "type": "uint256"
        }
      ],
      "stateMutability": "view",
      "type": "function"
    },
    {
      "inputs": [],
      "name": "getLoans",
      "outputs": [
        {
          "components": [
            {
              "components": [
                {
                  "internalType": "bool",
                  "name": "isActive",
                  "type": "bool"
                },
                {
                  "internalType": "address",
                  "name": "borrower",
                  "type": "address"
                },
                {
                  "internalType": "address",
                  "name": "nftAddress",
                  "type": "address"
                },
                {
                  "internalType": "uint256",
                  "name": "tokenId",
                  "type": "uint256"
                },
                {
                  "internalType": "uint256",
                  "name": "tokenValuation",
                  "type": "uint256"
                },
                {
                  "internalType": "uint256",
                  "name": "tokenFloorPrice",
                  "type": "uint256"
                },
                {
                  "internalType": "uint256",
                  "name": "loanValue",
                  "type": "uint256"
                },
                {
                  "internalType": "bytes32",
                  "name": "destinationAddress",
                  "type": "bytes32"
                },
                {
                  "internalType": "uint32",
                  "name": "duration",
                  "type": "uint32"
                },
                {
                  "internalType": "uint8",
                  "name": "interestRate",
                  "type": "uint8"
                }
              ],
              "internalType": "struct Offer",
              "name": "offer",
              "type": "tuple"
            },
            {
              "internalType": "bool",
              "name": "isActive",
              "type": "bool"
            },
            {
              "internalType": "address",
              "name": "lender",
              "type": "address"
            },
            {
              "internalType": "uint256",
              "name": "initialDate",
              "type": "uint256"
            }
          ],
          "internalType": "struct Loan[]",
          "name": "",
          "type": "tuple[]"
        }
      ],
      "stateMutability": "view",
      "type": "function"
    },
    {
      "inputs": [],
      "name": "getOffers",
      "outputs": [
        {
          "components": [
            {
              "internalType": "bool",
              "name": "isActive",
              "type": "bool"
            },
            {
              "internalType": "address",
              "name": "borrower",
              "type": "address"
            },
            {
              "internalType": "address",
              "name": "nftAddress",
              "type": "address"
            },
            {
              "internalType": "uint256",
              "name": "tokenId",
              "type": "uint256"
            },
            {
              "internalType": "uint256",
              "name": "tokenValuation",
              "type": "uint256"
            },
            {
              "internalType": "uint256",
              "name": "tokenFloorPrice",
              "type": "uint256"
            },
            {
              "internalType": "uint256",
              "name": "loanValue",
              "type": "uint256"
            },
            {
              "internalType": "bytes32",
              "name": "destinationAddress",
              "type": "bytes32"
            },
            {
              "internalType": "uint32",
              "name": "duration",
              "type": "uint32"
            },
            {
              "internalType": "uint8",
              "name": "interestRate",
              "type": "uint8"
            }
          ],
          "internalType": "struct Offer[]",
          "name": "",
          "type": "tuple[]"
        }
      ],
      "stateMutability": "view",
      "type": "function"
    },
    {
      "inputs": [],
      "name": "interestRate",
      "outputs": [
        {
          "internalType": "uint8",
          "name": "",
          "type": "uint8"
        }
      ],
      "stateMutability": "view",
      "type": "function"
    },
    {
      "inputs": [
        {
          "internalType": "uint256",
          "name": "loanIndex",
          "type": "uint256"
        }
      ],
      "name": "liquidateDefaultedPosition",
      "outputs": [],
      "stateMutability": "nonpayable",
      "type": "function"
    },
    {
      "inputs": [
        {
          "internalType": "uint256",
          "name": "",
          "type": "uint256"
        }
      ],
      "name": "loans",
      "outputs": [
        {
          "components": [
            {
              "internalType": "bool",
              "name": "isActive",
              "type": "bool"
            },
            {
              "internalType": "address",
              "name": "borrower",
              "type": "address"
            },
            {
              "internalType": "address",
              "name": "nftAddress",
              "type": "address"
            },
            {
              "internalType": "uint256",
              "name": "tokenId",
              "type": "uint256"
            },
            {
              "internalType": "uint256",
              "name": "tokenValuation",
              "type": "uint256"
            },
            {
              "internalType": "uint256",
              "name": "tokenFloorPrice",
              "type": "uint256"
            },
            {
              "internalType": "uint256",
              "name": "loanValue",
              "type": "uint256"
            },
            {
              "internalType": "bytes32",
              "name": "destinationAddress",
              "type": "bytes32"
            },
            {
              "internalType": "uint32",
              "name": "duration",
              "type": "uint32"
            },
            {
              "internalType": "uint8",
              "name": "interestRate",
              "type": "uint8"
            }
          ],
          "internalType": "struct Offer",
          "name": "offer",
          "type": "tuple"
        },
        {
          "internalType": "bool",
          "name": "isActive",
          "type": "bool"
        },
        {
          "internalType": "address",
          "name": "lender",
          "type": "address"
        },
        {
          "internalType": "uint256",
          "name": "initialDate",
          "type": "uint256"
        }
      ],
      "stateMutability": "view",
      "type": "function"
    },
    {
      "inputs": [
        {
          "internalType": "address",
          "name": "_nftAddress",
          "type": "address"
        },
        {
          "internalType": "uint256",
          "name": "_tokenId",
          "type": "uint256"
        },
        {
          "internalType": "uint256",
          "name": "_tokenValuation",
          "type": "uint256"
        },
        {
          "internalType": "uint256",
          "name": "_loanValue",
          "type": "uint256"
        },
        {
          "internalType": "bytes32",
          "name": "_destinationAddress",
          "type": "bytes32"
        },
        {
          "internalType": "uint32",
          "name": "_duration",
          "type": "uint32"
        },
        {
          "internalType": "uint8",
          "name": "_interestRate",
          "type": "uint8"
        }
      ],
      "name": "makeOffer",
      "outputs": [],
      "stateMutability": "nonpayable",
      "type": "function"
    },
    {
      "inputs": [],
      "name": "maxBorrowPercentage",
      "outputs": [
        {
          "internalType": "uint256",
          "name": "",
          "type": "uint256"
        }
      ],
      "stateMutability": "view",
      "type": "function"
    },
    {
      "inputs": [
        {
          "internalType": "address",
          "name": "",
          "type": "address"
        }
      ],
      "name": "nftAddressToMockFloorPrice",
      "outputs": [
        {
          "internalType": "uint256",
          "name": "",
          "type": "uint256"
        }
      ],
      "stateMutability": "view",
      "type": "function"
    },
    {
      "inputs": [
        {
          "internalType": "address",
          "name": "",
          "type": "address"
        }
      ],
      "name": "nftAddressToPriceFeedAddress",
      "outputs": [
        {
          "internalType": "address",
          "name": "",
          "type": "address"
        }
      ],
      "stateMutability": "view",
      "type": "function"
    },
    {
      "inputs": [
        {
          "internalType": "uint256",
          "name": "",
          "type": "uint256"
        }
      ],
      "name": "offers",
      "outputs": [
        {
          "internalType": "bool",
          "name": "isActive",
          "type": "bool"
        },
        {
          "internalType": "address",
          "name": "borrower",
          "type": "address"
        },
        {
          "internalType": "address",
          "name": "nftAddress",
          "type": "address"
        },
        {
          "internalType": "uint256",
          "name": "tokenId",
          "type": "uint256"
        },
        {
          "internalType": "uint256",
          "name": "tokenValuation",
          "type": "uint256"
        },
        {
          "internalType": "uint256",
          "name": "tokenFloorPrice",
          "type": "uint256"
        },
        {
          "internalType": "uint256",
          "name": "loanValue",
          "type": "uint256"
        },
        {
          "internalType": "bytes32",
          "name": "destinationAddress",
          "type": "bytes32"
        },
        {
          "internalType": "uint32",
          "name": "duration",
          "type": "uint32"
        },
        {
          "internalType": "uint8",
          "name": "interestRate",
          "type": "uint8"
        }
      ],
      "stateMutability": "view",
      "type": "function"
    },
    {
      "inputs": [
        {
          "internalType": "address",
          "name": "operator",
          "type": "address"
        },
        {
          "internalType": "address",
          "name": "from",
          "type": "address"
        },
        {
          "internalType": "uint256",
          "name": "tokenId",
          "type": "uint256"
        },
        {
          "internalType": "bytes",
          "name": "data",
          "type": "bytes"
        }
      ],
      "name": "onERC721Received",
      "outputs": [
        {
          "internalType": "bytes4",
          "name": "",
          "type": "bytes4"
        }
      ],
      "stateMutability": "nonpayable",
      "type": "function"
    },
    {
      "inputs": [],
      "name": "peggyBridge",
      "outputs": [
        {
          "internalType": "contract Peggy",
          "name": "",
          "type": "address"
        }
      ],
      "stateMutability": "view",
      "type": "function"
    },
    {
      "inputs": [
        {
          "internalType": "uint256",
          "name": "loanIndex",
          "type": "uint256"
        }
      ],
      "name": "repayLoan",
      "outputs": [],
      "stateMutability": "nonpayable",
      "type": "function"
    },
    {
      "inputs": [
        {
          "internalType": "address[]",
          "name": "_allowedAddresses",
          "type": "address[]"
        },
        {
          "internalType": "uint256[]",
          "name": "_mockPrices",
          "type": "uint256[]"
        }
      ],
      "name": "setFloorPrice",
      "outputs": [],
      "stateMutability": "nonpayable",
      "type": "function"
    },
    {
      "inputs": [],
      "name": "weth",
      "outputs": [
        {
          "internalType": "contract IERC20",
          "name": "",
          "type": "address"
        }
      ],
      "stateMutability": "view",
      "type": "function"
    }
  ],
  "bytecode": "0x60a06040526004805460ff191660051790553480156200001e57600080fd5b50604051620027413803806200274183398101604081905262000041916200042d565b6001600160a01b03858116608052600080546001600160a01b03191691831691909117905546600103620001d75760005b8451811015620001d0578351855114620000df5760405162461bcd60e51b815260206004820152602360248201527f53697a65206f6620616464726573736573206c6973747320646f6e2774206d616044820152620e8c6d60eb1b60648201526084015b60405180910390fd5b6001806000878481518110620000f957620000f962000541565b60200260200101516001600160a01b03166001600160a01b0316815260200190815260200160002060006101000a81548160ff0219169083151502179055508381815181106200014d576200014d62000541565b6020026020010151600560008784815181106200016e576200016e62000541565b60200260200101516001600160a01b03166001600160a01b0316815260200190815260200160002060006101000a8154816001600160a01b0302191690836001600160a01b031602179055508080620001c79062000557565b91505062000072565b506200031a565b60005b845181101562000318578251855114620002475760405162461bcd60e51b815260206004820152602760248201527f53697a65206f6620616464726573732f7072696365206c6973747320646f6e276044820152660e840dac2e8c6d60cb1b6064820152608401620000d6565b600180600087848151811062000261576200026162000541565b60200260200101516001600160a01b03166001600160a01b0316815260200190815260200160002060006101000a81548160ff021916908315150217905550828181518110620002b557620002b562000541565b602002602001015160066000878481518110620002d657620002d662000541565b60200260200101516001600160a01b03166001600160a01b031681526020019081526020016000208190555080806200030f9062000557565b915050620001da565b505b50505050506200057f565b80516001600160a01b03811681146200033d57600080fd5b919050565b634e487b7160e01b600052604160045260246000fd5b604051601f8201601f191681016001600160401b038111828210171562000383576200038362000342565b604052919050565b60006001600160401b03821115620003a757620003a762000342565b5060051b60200190565b600082601f830112620003c357600080fd5b81516020620003dc620003d6836200038b565b62000358565b82815260059290921b84018101918181019086841115620003fc57600080fd5b8286015b848110156200042257620004148162000325565b835291830191830162000400565b509695505050505050565b600080600080600060a086880312156200044657600080fd5b620004518662000325565b602087810151919650906001600160401b03808211156200047157600080fd5b6200047f8a838b01620003b1565b965060408901519150808211156200049657600080fd5b620004a48a838b01620003b1565b95506060890151915080821115620004bb57600080fd5b508701601f81018913620004ce57600080fd5b8051620004df620003d6826200038b565b81815260059190911b8201830190838101908b831115620004ff57600080fd5b928401925b828410156200051f5783518252928401929084019062000504565b8096505050505050620005356080870162000325565b90509295509295909350565b634e487b7160e01b600052603260045260246000fd5b6000600182016200057857634e487b7160e01b600052601160045260246000fd5b5060010190565b608051612183620005be600039600081816101d301528181610d1c01528181610ddd01528181611471015281816114d8015261158101526121836000f3fe608060405234801561001057600080fd5b506004361061012c5760003560e01c80638a72ea6a116100ad578063c3e214fc11610071578063c3e214fc1461035d578063c815729d14610370578063e1ec3c6814610383578063e6a69ab8146103a6578063ef706adf146103c657600080fd5b80638a72ea6a14610285578063aa4a8711146102f9578063ab7b1c891461030e578063ad93a32314610321578063c2d60cdb1461034a57600080fd5b80633fc8cef3116100f45780633fc8cef3146101ce5780634120657a1461020d5780635f1ee882146102405780637c3a00fd146102535780637d6f799a1461027257600080fd5b806301c36f1114610131578063150b7a02146101465780632d36031a1461018357806334ec9e67146101995780633ee992ee146101b9575b600080fd5b61014461013f366004611bd0565b6103d9565b005b610165610154366004611c90565b630a85bd0160e11b95945050505050565b6040516001600160e01b031990911681526020015b60405180910390f35b61018b603c81565b60405190815260200161017a565b61018b6101a7366004611d2b565b60066020526000908152604090205481565b6101c161056f565b60405161017a9190611de2565b6101f57f000000000000000000000000000000000000000000000000000000000000000081565b6040516001600160a01b03909116815260200161017a565b61023061021b366004611d2b565b60016020526000908152604090205460ff1681565b604051901515815260200161017a565b6000546101f5906001600160a01b031681565b6004546102609060ff1681565b60405160ff909116815260200161017a565b610144610280366004611e31565b610653565b610298610293366004611eb0565b6109b7565b604080519a15158b526001600160a01b03998a1660208c015297909816968901969096526060880194909452608087019290925260a086015260c085015260e084015263ffffffff1661010083015260ff166101208201526101400161017a565b610301610a35565b60405161017a9190611ec9565b61014461031c366004611eb0565b610b3c565b6101f561032f366004611d2b565b6005602052600090815260409020546001600160a01b031681565b610144610358366004611eb0565b610e84565b61018b61036b366004611d2b565b61107f565b61014461037e366004611eb0565b611177565b610396610391366004611eb0565b61160b565b60405161017a9493929190611f44565b6103b16301e1338081565b60405163ffffffff909116815260200161017a565b6101446103d4366004611eb0565b6116d6565b466001036104385760405162461bcd60e51b815260206004820152602160248201527f43616e6e6f742068617264636f64652070726963657320696e206d61696e6e656044820152601d60fa1b60648201526084015b60405180910390fd5b60005b825181101561056a5781518351146104a55760405162461bcd60e51b815260206004820152602760248201527f53697a65206f6620616464726573732f7072696365206c6973747320646f6e276044820152660e840dac2e8c6d60cb1b606482015260840161042f565b60018060008584815181106104bc576104bc611f7a565b60200260200101516001600160a01b03166001600160a01b0316815260200190815260200160002060006101000a81548160ff02191690831515021790555081818151811061050d5761050d611f7a565b60200260200101516006600085848151811061052b5761052b611f7a565b60200260200101516001600160a01b03166001600160a01b0316815260200190815260200160002081905550808061056290611fa6565b91505061043b565b505050565b60606002805480602002602001604051908101604052809291908181526020016000905b8282101561064a576000848152602090819020604080516101408101825260088602909201805460ff808216151585526001600160a01b0361010092839004811686880152600180850154909116948601949094526002830154606086015260038301546080860152600483015460a0860152600583015460c0860152600683015460e086015260079092015463ffffffff8116918501919091526401000000009004166101208301529083529092019101610593565b50505050905090565b6001600160a01b03871660009081526001602052604090205460ff166106bb5760405162461bcd60e51b815260206004820152601c60248201527f4e465420636f6c6c656374696f6e206e6f7420737570706f7274656400000000604482015260640161042f565b60646106c8603c87611fbf565b6106d29190611fdc565b8411156107375760405162461bcd60e51b815260206004820152602d60248201527f4c6f616e2073686f756c64206265206174206d6f737420363025206f6620746f60448201526c35b2b7103b30b63ab0ba34b7b760991b606482015260840161042f565b62278d008263ffffffff16101580610758575062ed4e008263ffffffff1611155b6107b45760405162461bcd60e51b815260206004820152602760248201527f4475726174696f6e206d7573742062652077697468696e20333020616e6420316044820152663830206461797360c81b606482015260840161042f565b604051632142170760e11b815287906001600160a01b038216906342842e0e906107e690339030908c90600401611ffe565b600060405180830381600087803b15801561080057600080fd5b505af1158015610814573d6000803e3d6000fd5b5050505060006108238961107f565b90506002604051806101400160405280600115158152602001336001600160a01b031681526020018b6001600160a01b031681526020018a81526020018981526020018381526020018881526020018781526020018663ffffffff1681526020018560ff16815250908060018154018082558091505060019003906000526020600020906008020160009091909190915060008201518160000160006101000a81548160ff02191690831515021790555060208201518160000160016101000a8154816001600160a01b0302191690836001600160a01b0316021790555060408201518160010160006101000a8154816001600160a01b0302191690836001600160a01b03160217905550606082015181600201556080820151816003015560a0820151816004015560c0820151816005015560e082015181600601556101008201518160070160006101000a81548163ffffffff021916908363ffffffff1602179055506101208201518160070160046101000a81548160ff021916908360ff1602179055505050505050505050505050565b600281815481106109c757600080fd5b60009182526020909120600890910201805460018201546002830154600384015460048501546005860154600687015460079097015460ff80881699506101009097046001600160a01b0390811698961696949593949293919263ffffffff8216916401000000009004168a565b60606003805480602002602001604051908101604052809291908181526020016000905b8282101561064a576000848152602090819020604080516101c081018252600a8602909201805460ff8082161515608086019081526001600160a01b0361010093849004811660a0880152600180860154821660c0890152600286015460e0890152600386015485890152600486015461012089015260058601546101408901526006860154610160890152600786015463ffffffff81166101808a0152640100000000900484166101a0890152918752600885015492831615158789015292909104909116928401929092526009015460608301529083529092019101610a59565b600060038281548110610b5157610b51611f7a565b60009182526020909120600a90910201805490915061010090046001600160a01b03163314610bc25760405162461bcd60e51b815260206004820152601860248201527f4e6f7420626f72726f776572206f6620706f736974696f6e0000000000000000604482015260640161042f565b600781015460098201544291610be09163ffffffff90911690612022565b1015610c2e5760405162461bcd60e51b815260206004820152601960248201527f506f736974696f6e2063616e6e6f742062652072657061696400000000000000604482015260640161042f565b600881015460ff16610c775760405162461bcd60e51b81526020600482015260126024820152714c6f616e206973206e6f742061637469766560701b604482015260640161042f565b60088101805460ff1916905560078101546005820154600091606491610ca891640100000000900460ff1690611fbf565b610cb29190611fdc565b60078301549091506000906301e1338090610cd39063ffffffff1684611fbf565b610cdd9190611fdc565b90506000818460000160050154610cf49190612022565b604051636eb1769f60e11b815233600482015230602482015290915081906001600160a01b037f0000000000000000000000000000000000000000000000000000000000000000169063dd62ed3e90604401602060405180830381865afa158015610d63573d6000803e3d6000fd5b505050506040513d601f19601f82011682018060405250810190610d879190612035565b1015610dca5760405162461bcd60e51b81526020600482015260126024820152714e6f7420656e6f7567682062616c616e636560701b604482015260640161042f565b6008840154610e0e906001600160a01b037f00000000000000000000000000000000000000000000000000000000000000008116913391610100909104168461181e565b60018401546002850154604051632142170760e11b81526001600160a01b039092169182916342842e0e91610e4a913091339190600401611ffe565b600060405180830381600087803b158015610e6457600080fd5b505af1158015610e78573d6000803e3d6000fd5b50505050505050505050565b600060038281548110610e9957610e99611f7a565b60009182526020909120600a90910201600881015490915060ff16610f005760405162461bcd60e51b815260206004820152601b60248201527f4c6f616e2077617320616c7265616479206c6971756964617465640000000000604482015260640161042f565b60088101805460ff191690556001810154600090610f26906001600160a01b031661107f565b60048301546003840154919250600091610f41908490611fbf565b610f4b9190611fdc565b905060006064610f5c603c84611fbf565b610f669190611fdc565b60078501546009860154919250600091610f869163ffffffff1690612022565b90508185600001600501541180610f9d5750428111155b610ffc5760405162461bcd60e51b815260206004820152602a60248201527f506f736974696f6e207374696c6c206865616c746879206f722074696d65206e6044820152691bdd08195b185c1cd95960b21b606482015260840161042f565b600185015460088601546002870154604051632142170760e11b81526001600160a01b039384169384936342842e0e9361104493309361010090930490921691600401611ffe565b600060405180830381600087803b15801561105e57600080fd5b505af1158015611072573d6000803e3d6000fd5b5050505050505050505050565b6000466001146110a557506001600160a01b031660009081526006602052604090205490565b6001600160a01b03808316600090815260056020526040808220548151633fabe5a360e21b81529151931692839163feaf968c9160048083019260a09291908290030181865afa1580156110fd573d6000803e3d6000fd5b505050506040513d601f19601f820116820180604052508101906111219190612068565b509193505060008313915061117090505760405162461bcd60e51b8152602060048201526013602482015272496e76616c696420666c6f6f7220707269636560681b604482015260640161042f565b9392505050565b60006002828154811061118c5761118c611f7a565b9060005260206000209060080201905060008160000160006101000a81548160ff0219169083151502179055506003604051806080016040528083604051806101400160405290816000820160009054906101000a900460ff161515151581526020016000820160019054906101000a90046001600160a01b03166001600160a01b03166001600160a01b031681526020016001820160009054906101000a90046001600160a01b03166001600160a01b03166001600160a01b0316815260200160028201548152602001600382015481526020016004820154815260200160058201548152602001600682015481526020016007820160009054906101000a900463ffffffff1663ffffffff1663ffffffff1681526020016007820160049054906101000a900460ff1660ff1660ff16815250508152602001600115158152602001336001600160a01b031681526020014281525090806001815401808255809150506001900390600052602060002090600a020160009091909190915060008201518160000160008201518160000160006101000a81548160ff02191690831515021790555060208201518160000160016101000a8154816001600160a01b0302191690836001600160a01b0316021790555060408201518160010160006101000a8154816001600160a01b0302191690836001600160a01b03160217905550606082015181600201556080820151816003015560a0820151816004015560c0820151816005015560e082015181600601556101008201518160070160006101000a81548163ffffffff021916908363ffffffff1602179055506101208201518160070160046101000a81548160ff021916908360ff160217905550505060208201518160080160006101000a81548160ff02191690831515021790555060408201518160080160016101000a8154816001600160a01b0302191690836001600160a01b031602179055506060820151816009015550506114a9333083600501547f00000000000000000000000000000000000000000000000000000000000000006001600160a01b031661181e909392919063ffffffff16565b600054600582015460405163095ea7b360e01b81526001600160a01b03928316600482015260248101919091527f00000000000000000000000000000000000000000000000000000000000000009091169063095ea7b3906044016020604051808303816000875af1158015611523573d6000803e3d6000fd5b505050506040513d601f19601f8201168201806040525081019061154791906120b8565b5046600114806115575750466005145b156116075760008054600683015460058401546040516359230a7960e11b81526001600160a01b037f00000000000000000000000000000000000000000000000000000000000000008116600483015260248201939093526044810191909152608060648201526084810193909352169063b24614f29060a401600060405180830381600087803b1580156115eb57600080fd5b505af11580156115ff573d6000803e3d6000fd5b505050505050565b5050565b6003818154811061161b57600080fd5b60009182526020918290206040805161014081018252600a909302909101805460ff808216151585526001600160a01b036101009283900481169686019690965260018301548616938501939093526002820154606085015260038201546080850152600482015460a0850152600582015460c0850152600682015460e0850152600782015463ffffffff81168286015264010000000090048316610120850152600882015460099092015493955091811693919004169084565b6000600282815481106116eb576116eb611f7a565b60009182526020909120600890910201805490915060ff166117455760405162461bcd60e51b81526020600482015260136024820152724f66666572206973206e6f742061637469766560681b604482015260640161042f565b805461010090046001600160a01b031633146117a35760405162461bcd60e51b815260206004820152601d60248201527f4f66666572206e6f74206f776e6564206279206d73672e73656e646572000000604482015260640161042f565b805460ff19168155600181015460028201546040516323b872dd60e01b81526001600160a01b039092169182916323b872dd916117e7913091339190600401611ffe565b600060405180830381600087803b15801561180157600080fd5b505af1158015611815573d6000803e3d6000fd5b50505050505050565b611876846323b872dd60e01b85858560405160240161183f93929190611ffe565b60408051601f198184030181529190526020810180516001600160e01b03166001600160e01b03199093169290921790915261187c565b50505050565b60006118d1826040518060400160405280602081526020017f5361666545524332303a206c6f772d6c6576656c2063616c6c206661696c6564815250856001600160a01b031661194e9092919063ffffffff16565b80519091501561056a57808060200190518101906118ef91906120b8565b61056a5760405162461bcd60e51b815260206004820152602a60248201527f5361666545524332303a204552433230206f7065726174696f6e20646964206e6044820152691bdd081cdd58d8d9595960b21b606482015260840161042f565b606061195d8484600085611965565b949350505050565b6060824710156119c65760405162461bcd60e51b815260206004820152602660248201527f416464726573733a20696e73756666696369656e742062616c616e636520666f6044820152651c8818d85b1b60d21b606482015260840161042f565b600080866001600160a01b031685876040516119e291906120fe565b60006040518083038185875af1925050503d8060008114611a1f576040519150601f19603f3d011682016040523d82523d6000602084013e611a24565b606091505b5091509150611a3587838387611a40565b979650505050505050565b60608315611aaf578251600003611aa8576001600160a01b0385163b611aa85760405162461bcd60e51b815260206004820152601d60248201527f416464726573733a2063616c6c20746f206e6f6e2d636f6e7472616374000000604482015260640161042f565b508161195d565b61195d8383815115611ac45781518083602001fd5b8060405162461bcd60e51b815260040161042f919061211a565b634e487b7160e01b600052604160045260246000fd5b604051601f8201601f1916810167ffffffffffffffff81118282101715611b1d57611b1d611ade565b604052919050565b600067ffffffffffffffff821115611b3f57611b3f611ade565b5060051b60200190565b80356001600160a01b0381168114611b6057600080fd5b919050565b600082601f830112611b7657600080fd5b81356020611b8b611b8683611b25565b611af4565b82815260059290921b84018101918181019086841115611baa57600080fd5b8286015b84811015611bc55780358352918301918301611bae565b509695505050505050565b60008060408385031215611be357600080fd5b823567ffffffffffffffff80821115611bfb57600080fd5b818501915085601f830112611c0f57600080fd5b81356020611c1f611b8683611b25565b82815260059290921b84018101918181019089841115611c3e57600080fd5b948201945b83861015611c6357611c5486611b49565b82529482019490820190611c43565b96505086013592505080821115611c7957600080fd5b50611c8685828601611b65565b9150509250929050565b600080600080600060808688031215611ca857600080fd5b611cb186611b49565b9450611cbf60208701611b49565b935060408601359250606086013567ffffffffffffffff80821115611ce357600080fd5b818801915088601f830112611cf757600080fd5b813581811115611d0657600080fd5b896020828501011115611d1857600080fd5b9699959850939650602001949392505050565b600060208284031215611d3d57600080fd5b61117082611b49565b8051151582526020810151611d6660208401826001600160a01b03169052565b506040810151611d8160408401826001600160a01b03169052565b50606081015160608301526080810151608083015260a081015160a083015260c081015160c083015260e081015160e083015261010080820151611dcc8285018263ffffffff169052565b50506101208181015160ff811684830152611876565b6020808252825182820181905260009190848201906040850190845b81811015611e2557611e11838551611d46565b928401926101409290920191600101611dfe565b50909695505050505050565b600080600080600080600060e0888a031215611e4c57600080fd5b611e5588611b49565b96506020880135955060408801359450606088013593506080880135925060a088013563ffffffff81168114611e8a57600080fd5b915060c088013560ff81168114611ea057600080fd5b8091505092959891949750929550565b600060208284031215611ec257600080fd5b5035919050565b602080825282518282018190526000919060409081850190868401855b82811015611f37578151611efb858251611d46565b808701511515610140860152858101516001600160a01b0316610160860152606001516101808501526101a09093019290850190600101611ee6565b5091979650505050505050565b6101a08101611f538287611d46565b9315156101408201526001600160a01b039290921661016083015261018090910152919050565b634e487b7160e01b600052603260045260246000fd5b634e487b7160e01b600052601160045260246000fd5b600060018201611fb857611fb8611f90565b5060010190565b8082028115828204841417611fd657611fd6611f90565b92915050565b600082611ff957634e487b7160e01b600052601260045260246000fd5b500490565b6001600160a01b039384168152919092166020820152604081019190915260600190565b80820180821115611fd657611fd6611f90565b60006020828403121561204757600080fd5b5051919050565b805169ffffffffffffffffffff81168114611b6057600080fd5b600080600080600060a0868803121561208057600080fd5b6120898661204e565b94506020860151935060408601519250606086015191506120ac6080870161204e565b90509295509295909350565b6000602082840312156120ca57600080fd5b8151801515811461117057600080fd5b60005b838110156120f55781810151838201526020016120dd565b50506000910152565b600082516121108184602087016120da565b9190910192915050565b60208152600082518060208401526121398160408501602087016120da565b601f01601f1916919091016040019291505056fea264697066735822122054a8c75d0b2ef81312b6208aacb1b3933bb3e9cf980d13dc18815cffcd7ffdbd64736f6c63430008120033",
  "linkReferences": {},
  "deployedLinkReferences": {}
}