{
  "_format": "hh-sol-artifact-1",
  "contractName": "MetaExchange",
  "sourceName": "contracts/MetaExchange.sol",
  "abi": [
    {
      "inputs": [
        {
          "internalType": "address",
          "name": "_wethAddress",
          "type": "address"
        },
        {
          "internalType": "address[]",
          "name": "_allowedAddresses",
          "type": "address[]"
        },
        {
          "internalType": "address[]",
          "name": "_priceFeedAddresses",
          "type": "address[]"
        },
        {
          "internalType": "uint256[]",
          "name": "_mockPrices",
          "type": "uint256[]"
        },
        {
          "internalType": "address",
          "name": "peggyAddress",
          "type": "address"
        }
      ],
      "stateMutability": "nonpayable",
      "type": "constructor"
    },
    {
      "inputs": [],
      "name": "DAYS_PER_YEAR",
      "outputs": [
        {
          "internalType": "uint32",
          "name": "",
          "type": "uint32"
        }
      ],
      "stateMutability": "view",
      "type": "function"
    },
    {
      "inputs": [
        {
          "internalType": "uint256",
          "name": "offerIndex",
          "type": "uint256"
        }
      ],
      "name": "acceptOffer",
      "outputs": [],
      "stateMutability": "nonpayable",
      "type": "function"
    },
    {
      "inputs": [
        {
          "internalType": "address",
          "name": "",
          "type": "address"
        }
      ],
      "name": "allowedAddresses",
      "outputs": [
        {
          "internalType": "bool",
          "name": "",
          "type": "bool"
        }
      ],
      "stateMutability": "view",
      "type": "function"
    },
    {
      "inputs": [
        {
          "internalType": "uint256",
          "name": "offerIndex",
          "type": "uint256"
        }
      ],
      "name": "cancelOffer",
      "outputs": [],
      "stateMutability": "nonpayable",
      "type": "function"
    },
    {
      "inputs": [
        {
          "internalType": "address",
          "name": "_nftCollection",
          "type": "address"
        }
      ],
      "name": "getFloorPrice",
      "outputs": [
        {
          "internalType": "uint256",
          "name": "",
          "type": "uint256"
        }
      ],
      "stateMutability": "view",
      "type": "function"
    },
    {
      "inputs": [],
      "name": "getInterestRate",
      "outputs": [
        {
          "internalType": "uint8",
          "name": "",
          "type": "uint8"
        }
      ],
      "stateMutability": "view",
      "type": "function"
    },
    {
      "inputs": [],
      "name": "getLoans",
      "outputs": [
        {
          "components": [
            {
              "components": [
                {
                  "internalType": "bool",
                  "name": "isActive",
                  "type": "bool"
                },
                {
                  "internalType": "address",
                  "name": "borrower",
                  "type": "address"
                },
                {
                  "internalType": "address",
                  "name": "nftAddress",
                  "type": "address"
                },
                {
                  "internalType": "uint256",
                  "name": "tokenId",
                  "type": "uint256"
                },
                {
                  "internalType": "uint256",
                  "name": "tokenValuation",
                  "type": "uint256"
                },
                {
                  "internalType": "uint256",
                  "name": "tokenFloorPrice",
                  "type": "uint256"
                },
                {
                  "internalType": "uint256",
                  "name": "loanValue",
                  "type": "uint256"
                },
                {
                  "internalType": "bytes32",
                  "name": "injectiveAddress",
                  "type": "bytes32"
                },
                {
                  "internalType": "uint32",
                  "name": "duration",
                  "type": "uint32"
                },
                {
                  "internalType": "uint8",
                  "name": "interestRate",
                  "type": "uint8"
                }
              ],
              "internalType": "struct Offer",
              "name": "offer",
              "type": "tuple"
            },
            {
              "internalType": "bool",
              "name": "isActive",
              "type": "bool"
            },
            {
              "internalType": "address",
              "name": "lender",
              "type": "address"
            },
            {
              "internalType": "uint256",
              "name": "initialDate",
              "type": "uint256"
            }
          ],
          "internalType": "struct Loan[]",
          "name": "",
          "type": "tuple[]"
        }
      ],
      "stateMutability": "view",
      "type": "function"
    },
    {
      "inputs": [],
      "name": "getOffers",
      "outputs": [
        {
          "components": [
            {
              "internalType": "bool",
              "name": "isActive",
              "type": "bool"
            },
            {
              "internalType": "address",
              "name": "borrower",
              "type": "address"
            },
            {
              "internalType": "address",
              "name": "nftAddress",
              "type": "address"
            },
            {
              "internalType": "uint256",
              "name": "tokenId",
              "type": "uint256"
            },
            {
              "internalType": "uint256",
              "name": "tokenValuation",
              "type": "uint256"
            },
            {
              "internalType": "uint256",
              "name": "tokenFloorPrice",
              "type": "uint256"
            },
            {
              "internalType": "uint256",
              "name": "loanValue",
              "type": "uint256"
            },
            {
              "internalType": "bytes32",
              "name": "injectiveAddress",
              "type": "bytes32"
            },
            {
              "internalType": "uint32",
              "name": "duration",
              "type": "uint32"
            },
            {
              "internalType": "uint8",
              "name": "interestRate",
              "type": "uint8"
            }
          ],
          "internalType": "struct Offer[]",
          "name": "",
          "type": "tuple[]"
        }
      ],
      "stateMutability": "view",
      "type": "function"
    },
    {
      "inputs": [],
      "name": "interestRate",
      "outputs": [
        {
          "internalType": "uint8",
          "name": "",
          "type": "uint8"
        }
      ],
      "stateMutability": "view",
      "type": "function"
    },
    {
      "inputs": [
        {
          "internalType": "uint256",
          "name": "loanIndex",
          "type": "uint256"
        }
      ],
      "name": "liquidateDefaultedPosition",
      "outputs": [],
      "stateMutability": "nonpayable",
      "type": "function"
    },
    {
      "inputs": [
        {
          "internalType": "uint256",
          "name": "",
          "type": "uint256"
        }
      ],
      "name": "loans",
      "outputs": [
        {
          "components": [
            {
              "internalType": "bool",
              "name": "isActive",
              "type": "bool"
            },
            {
              "internalType": "address",
              "name": "borrower",
              "type": "address"
            },
            {
              "internalType": "address",
              "name": "nftAddress",
              "type": "address"
            },
            {
              "internalType": "uint256",
              "name": "tokenId",
              "type": "uint256"
            },
            {
              "internalType": "uint256",
              "name": "tokenValuation",
              "type": "uint256"
            },
            {
              "internalType": "uint256",
              "name": "tokenFloorPrice",
              "type": "uint256"
            },
            {
              "internalType": "uint256",
              "name": "loanValue",
              "type": "uint256"
            },
            {
              "internalType": "bytes32",
              "name": "injectiveAddress",
              "type": "bytes32"
            },
            {
              "internalType": "uint32",
              "name": "duration",
              "type": "uint32"
            },
            {
              "internalType": "uint8",
              "name": "interestRate",
              "type": "uint8"
            }
          ],
          "internalType": "struct Offer",
          "name": "offer",
          "type": "tuple"
        },
        {
          "internalType": "bool",
          "name": "isActive",
          "type": "bool"
        },
        {
          "internalType": "address",
          "name": "lender",
          "type": "address"
        },
        {
          "internalType": "uint256",
          "name": "initialDate",
          "type": "uint256"
        }
      ],
      "stateMutability": "view",
      "type": "function"
    },
    {
      "inputs": [
        {
          "internalType": "address",
          "name": "_nftAddress",
          "type": "address"
        },
        {
          "internalType": "uint256",
          "name": "_tokenId",
          "type": "uint256"
        },
        {
          "internalType": "uint256",
          "name": "_tokenValuation",
          "type": "uint256"
        },
        {
          "internalType": "uint256",
          "name": "_loanValue",
          "type": "uint256"
        },
        {
          "internalType": "bytes32",
          "name": "_injectiveAddress",
          "type": "bytes32"
        },
        {
          "internalType": "uint32",
          "name": "_duration",
          "type": "uint32"
        }
      ],
      "name": "makeOffer",
      "outputs": [],
      "stateMutability": "nonpayable",
      "type": "function"
    },
    {
      "inputs": [],
      "name": "maxBorrowPercentage",
      "outputs": [
        {
          "internalType": "uint256",
          "name": "",
          "type": "uint256"
        }
      ],
      "stateMutability": "view",
      "type": "function"
    },
    {
      "inputs": [
        {
          "internalType": "address",
          "name": "",
          "type": "address"
        }
      ],
      "name": "nftAddressToMockFloorPrice",
      "outputs": [
        {
          "internalType": "uint256",
          "name": "",
          "type": "uint256"
        }
      ],
      "stateMutability": "view",
      "type": "function"
    },
    {
      "inputs": [
        {
          "internalType": "address",
          "name": "",
          "type": "address"
        }
      ],
      "name": "nftAddressToPriceFeedAddress",
      "outputs": [
        {
          "internalType": "address",
          "name": "",
          "type": "address"
        }
      ],
      "stateMutability": "view",
      "type": "function"
    },
    {
      "inputs": [
        {
          "internalType": "uint256",
          "name": "",
          "type": "uint256"
        }
      ],
      "name": "offers",
      "outputs": [
        {
          "internalType": "bool",
          "name": "isActive",
          "type": "bool"
        },
        {
          "internalType": "address",
          "name": "borrower",
          "type": "address"
        },
        {
          "internalType": "address",
          "name": "nftAddress",
          "type": "address"
        },
        {
          "internalType": "uint256",
          "name": "tokenId",
          "type": "uint256"
        },
        {
          "internalType": "uint256",
          "name": "tokenValuation",
          "type": "uint256"
        },
        {
          "internalType": "uint256",
          "name": "tokenFloorPrice",
          "type": "uint256"
        },
        {
          "internalType": "uint256",
          "name": "loanValue",
          "type": "uint256"
        },
        {
          "internalType": "bytes32",
          "name": "injectiveAddress",
          "type": "bytes32"
        },
        {
          "internalType": "uint32",
          "name": "duration",
          "type": "uint32"
        },
        {
          "internalType": "uint8",
          "name": "interestRate",
          "type": "uint8"
        }
      ],
      "stateMutability": "view",
      "type": "function"
    },
    {
      "inputs": [],
      "name": "peggyBridge",
      "outputs": [
        {
          "internalType": "contract Peggy",
          "name": "",
          "type": "address"
        }
      ],
      "stateMutability": "view",
      "type": "function"
    },
    {
      "inputs": [
        {
          "internalType": "uint256",
          "name": "loanIndex",
          "type": "uint256"
        }
      ],
      "name": "repayLoan",
      "outputs": [],
      "stateMutability": "nonpayable",
      "type": "function"
    },
    {
      "inputs": [],
      "name": "weth",
      "outputs": [
        {
          "internalType": "contract IERC20",
          "name": "",
          "type": "address"
        }
      ],
      "stateMutability": "view",
      "type": "function"
    }
  ],
  "bytecode": "0x60a06040526004805460ff191660051790553480156200001e57600080fd5b506040516200208b3803806200208b83398101604081905262000041916200042d565b6001600160a01b03858116608052600080546001600160a01b03191691831691909117905546600103620001d75760005b8451811015620001d0578351855114620000df5760405162461bcd60e51b815260206004820152602360248201527f53697a65206f6620616464726573736573206c6973747320646f6e2774206d616044820152620e8c6d60eb1b60648201526084015b60405180910390fd5b6001806000878481518110620000f957620000f962000541565b60200260200101516001600160a01b03166001600160a01b0316815260200190815260200160002060006101000a81548160ff0219169083151502179055508381815181106200014d576200014d62000541565b6020026020010151600560008784815181106200016e576200016e62000541565b60200260200101516001600160a01b03166001600160a01b0316815260200190815260200160002060006101000a8154816001600160a01b0302191690836001600160a01b031602179055508080620001c79062000557565b91505062000072565b506200031a565b60005b845181101562000318578251855114620002475760405162461bcd60e51b815260206004820152602760248201527f53697a65206f6620616464726573732f7072696365206c6973747320646f6e276044820152660e840dac2e8c6d60cb1b6064820152608401620000d6565b600180600087848151811062000261576200026162000541565b60200260200101516001600160a01b03166001600160a01b0316815260200190815260200160002060006101000a81548160ff021916908315150217905550828181518110620002b557620002b562000541565b602002602001015160066000878481518110620002d657620002d662000541565b60200260200101516001600160a01b03166001600160a01b031681526020019081526020016000208190555080806200030f9062000557565b915050620001da565b505b50505050506200057f565b80516001600160a01b03811681146200033d57600080fd5b919050565b634e487b7160e01b600052604160045260246000fd5b604051601f8201601f191681016001600160401b038111828210171562000383576200038362000342565b604052919050565b60006001600160401b03821115620003a757620003a762000342565b5060051b60200190565b600082601f830112620003c357600080fd5b81516020620003dc620003d6836200038b565b62000358565b82815260059290921b84018101918181019086841115620003fc57600080fd5b8286015b848110156200042257620004148162000325565b835291830191830162000400565b509695505050505050565b600080600080600060a086880312156200044657600080fd5b620004518662000325565b602087810151919650906001600160401b03808211156200047157600080fd5b6200047f8a838b01620003b1565b965060408901519150808211156200049657600080fd5b620004a48a838b01620003b1565b95506060890151915080821115620004bb57600080fd5b508701601f81018913620004ce57600080fd5b8051620004df620003d6826200038b565b81815260059190911b8201830190838101908b831115620004ff57600080fd5b928401925b828410156200051f5783518252928401929084019062000504565b8096505050505050620005356080870162000325565b90509295509295909350565b634e487b7160e01b600052603260045260246000fd5b6000600182016200057857634e487b7160e01b600052601160045260246000fd5b5060010190565b608051611adb620005b06000396000818161017b0152818161071f01528181610d920152610df90152611adb6000f3fe608060405234801561001057600080fd5b50600436106101215760003560e01c8063aa4a8711116100ad578063c6846ef811610071578063c6846ef81461030e578063c815729d1461032c578063e1ec3c681461033f578063ef706adf14610362578063ef947d8b1461037557600080fd5b8063aa4a871114610295578063ab7b1c89146102aa578063ad93a323146102bf578063c2d60cdb146102e8578063c3e214fc146102fb57600080fd5b80634120657a116100f45780634120657a146101b55780635257b566146101e85780635f1ee882146102015780637c3a00fd146102145780638a72ea6a1461022157600080fd5b80632d36031a1461012657806334ec9e67146101415780633ee992ee146101615780633fc8cef314610176575b600080fd5b61012e603c81565b6040519081526020015b60405180910390f35b61012e61014f3660046116cf565b60066020526000908152604090205481565b610169610388565b6040516101389190611786565b61019d7f000000000000000000000000000000000000000000000000000000000000000081565b6040516001600160a01b039091168152602001610138565b6101d86101c33660046116cf565b60016020526000908152604090205460ff1681565b6040519015158152602001610138565b60045460ff165b60405160ff9091168152602001610138565b60005461019d906001600160a01b031681565b6004546101ef9060ff1681565b61023461022f3660046117d5565b61046c565b604080519a15158b526001600160a01b03998a1660208c015297909816968901969096526060880194909452608087019290925260a086015260c085015260e084015263ffffffff1661010083015260ff1661012082015261014001610138565b61029d6104ea565b60405161013891906117ee565b6102bd6102b83660046117d5565b6105f1565b005b61019d6102cd3660046116cf565b6005602052600090815260409020546001600160a01b031681565b6102bd6102f63660046117d5565b6107c6565b61012e6103093660046116cf565b6109a0565b61031761016d81565b60405163ffffffff9091168152602001610138565b6102bd61033a3660046117d5565b610a98565b61035261034d3660046117d5565b610e6d565b6040516101389493929190611869565b6102bd6103703660046117d5565b610f38565b6102bd61038336600461189f565b611080565b60606002805480602002602001604051908101604052809291908181526020016000905b82821015610463576000848152602090819020604080516101408101825260088602909201805460ff808216151585526001600160a01b0361010092839004811686880152600180850154909116948601949094526002830154606086015260038301546080860152600483015460a0860152600583015460c0860152600683015460e086015260079092015463ffffffff81169185019190915264010000000090041661012083015290835290920191016103ac565b50505050905090565b6002818154811061047c57600080fd5b60009182526020909120600890910201805460018201546002830154600384015460048501546005860154600687015460079097015460ff80881699506101009097046001600160a01b0390811698961696949593949293919263ffffffff8216916401000000009004168a565b60606003805480602002602001604051908101604052809291908181526020016000905b82821015610463576000848152602090819020604080516101c081018252600a8602909201805460ff8082161515608086019081526001600160a01b0361010093849004811660a0880152600180860154821660c0890152600286015460e0890152600386015485890152600486015461012089015260058601546101408901526006860154610160890152600786015463ffffffff81166101808a0152640100000000900484166101a089015291875260088501549283161515878901529290910490911692840192909252600901546060830152908352909201910161050e565b60006003828154811061060657610606611904565b60009182526020909120600a909102016007810154600982015491925042916106359163ffffffff1690611930565b111561064057600080fd5b600881015460ff1661068e5760405162461bcd60e51b81526020600482015260126024820152714c6f616e206973206e6f742061637469766560701b60448201526064015b60405180910390fd5b60088101805460ff19169055600781015460058201546000916064916106bf91640100000000900460ff1690611949565b6106c99190611960565b600783015490915060009061016d906106e89063ffffffff1684611949565b6106f29190611960565b905060008184600001600501546107099190611930565b6008850154909150610750906001600160a01b037f0000000000000000000000000000000000000000000000000000000000000000811691339161010090910416846113f3565b60018401546002850154604051632142170760e11b81526001600160a01b039092169182916342842e0e9161078c913091339190600401611982565b600060405180830381600087803b1580156107a657600080fd5b505af11580156107ba573d6000803e3d6000fd5b50505050505050505050565b6000600382815481106107db576107db611904565b60009182526020909120600a90910201600881015490915060ff166108425760405162461bcd60e51b815260206004820152601b60248201527f4c6f616e2077617320616c7265616479206c69717569646174656400000000006044820152606401610685565b60088101805460ff191690556001810154600090610868906001600160a01b03166109a0565b60048301546003840154919250600091610883908490611949565b61088d9190611960565b905080836000016005015411806108c057506007830154600984015442916108bd9163ffffffff90911690611930565b10155b61091f5760405162461bcd60e51b815260206004820152602a60248201527f506f736974696f6e207374696c6c206865616c746879206f722074696d65206e6044820152691bdd08195b185c1cd95960b21b6064820152608401610685565b600183015460088401546002850154604051632142170760e11b81526001600160a01b039384169384936342842e0e9361096793309361010090930490921691600401611982565b600060405180830381600087803b15801561098157600080fd5b505af1158015610995573d6000803e3d6000fd5b505050505050505050565b6000466001146109c657506001600160a01b031660009081526006602052604090205490565b6001600160a01b03808316600090815260056020526040808220548151633fabe5a360e21b81529151931692839163feaf968c9160048083019260a09291908290030181865afa158015610a1e573d6000803e3d6000fd5b505050506040513d601f19601f82011682018060405250810190610a4291906119c0565b5091935050600083139150610a9190505760405162461bcd60e51b8152602060048201526013602482015272496e76616c696420666c6f6f7220707269636560681b6044820152606401610685565b9392505050565b600060028281548110610aad57610aad611904565b9060005260206000209060080201905060008160000160006101000a81548160ff0219169083151502179055506003604051806080016040528083604051806101400160405290816000820160009054906101000a900460ff161515151581526020016000820160019054906101000a90046001600160a01b03166001600160a01b03166001600160a01b031681526020016001820160009054906101000a90046001600160a01b03166001600160a01b03166001600160a01b0316815260200160028201548152602001600382015481526020016004820154815260200160058201548152602001600682015481526020016007820160009054906101000a900463ffffffff1663ffffffff1663ffffffff1681526020016007820160049054906101000a900460ff1660ff1660ff16815250508152602001600115158152602001336001600160a01b031681526020014281525090806001815401808255809150506001900390600052602060002090600a020160009091909190915060008201518160000160008201518160000160006101000a81548160ff02191690831515021790555060208201518160000160016101000a8154816001600160a01b0302191690836001600160a01b0316021790555060408201518160010160006101000a8154816001600160a01b0302191690836001600160a01b03160217905550606082015181600201556080820151816003015560a0820151816004015560c0820151816005015560e082015181600601556101008201518160070160006101000a81548163ffffffff021916908363ffffffff1602179055506101208201518160070160046101000a81548160ff021916908360ff160217905550505060208201518160080160006101000a81548160ff02191690831515021790555060408201518160080160016101000a8154816001600160a01b0302191690836001600160a01b03160217905550606082015181600901555050610dca333083600501547f00000000000000000000000000000000000000000000000000000000000000006001600160a01b03166113f3909392919063ffffffff16565b600054600582015460405163095ea7b360e01b81526001600160a01b03928316600482015260248101919091527f00000000000000000000000000000000000000000000000000000000000000009091169063095ea7b3906044016020604051808303816000875af1158015610e44573d6000803e3d6000fd5b505050506040513d601f19601f82011682018060405250810190610e689190611a10565b505050565b60038181548110610e7d57600080fd5b60009182526020918290206040805161014081018252600a909302909101805460ff808216151585526001600160a01b036101009283900481169686019690965260018301548616938501939093526002820154606085015260038201546080850152600482015460a0850152600582015460c0850152600682015460e0850152600782015463ffffffff81168286015264010000000090048316610120850152600882015460099092015493955091811693919004169084565b600060028281548110610f4d57610f4d611904565b60009182526020909120600890910201805490915060ff16610fa75760405162461bcd60e51b81526020600482015260136024820152724f66666572206973206e6f742061637469766560681b6044820152606401610685565b805461010090046001600160a01b031633146110055760405162461bcd60e51b815260206004820152601d60248201527f4f66666572206e6f74206f776e6564206279206d73672e73656e6465720000006044820152606401610685565b805460ff19168155600181015460028201546040516323b872dd60e01b81526001600160a01b039092169182916323b872dd91611049913091339190600401611982565b600060405180830381600087803b15801561106357600080fd5b505af1158015611077573d6000803e3d6000fd5b50505050505050565b6001600160a01b03861660009081526001602052604090205460ff166110e85760405162461bcd60e51b815260206004820152601c60248201527f4e465420636f6c6c656374696f6e206e6f7420737570706f72746564000000006044820152606401610685565b60646110f5603c86611949565b6110ff9190611960565b83106111655760405162461bcd60e51b815260206004820152602f60248201527f4c6f616e2073686f756c64206265206c657373207468616e20363025206f662060448201526e3a37b5b2b7103b30b63ab0ba34b7b760891b6064820152608401610685565b62278d008163ffffffff16101580611186575062ed4e008163ffffffff1611155b6111e25760405162461bcd60e51b815260206004820152602760248201527f4475726174696f6e206d7573742062652077697468696e20333020616e6420316044820152663830206461797360c81b6064820152608401610685565b604051632142170760e11b815286906001600160a01b038216906342842e0e9061121490339030908b90600401611982565b600060405180830381600087803b15801561122e57600080fd5b505af1158015611242573d6000803e3d6000fd5b505050506000611251886109a0565b90506002604051806101400160405280600115158152602001336001600160a01b031681526020018a6001600160a01b031681526020018981526020018881526020018381526020018781526020018681526020018563ffffffff168152602001600460009054906101000a900460ff1660ff16815250908060018154018082558091505060019003906000526020600020906008020160009091909190915060008201518160000160006101000a81548160ff02191690831515021790555060208201518160000160016101000a8154816001600160a01b0302191690836001600160a01b0316021790555060408201518160010160006101000a8154816001600160a01b0302191690836001600160a01b03160217905550606082015181600201556080820151816003015560a0820151816004015560c0820151816005015560e082015181600601556101008201518160070160006101000a81548163ffffffff021916908363ffffffff1602179055506101208201518160070160046101000a81548160ff021916908360ff16021790555050505050505050505050565b61144b846323b872dd60e01b85858560405160240161141493929190611982565b60408051601f198184030181529190526020810180516001600160e01b03166001600160e01b031990931692909217909152611451565b50505050565b60006114a6826040518060400160405280602081526020017f5361666545524332303a206c6f772d6c6576656c2063616c6c206661696c6564815250856001600160a01b03166115239092919063ffffffff16565b805190915015610e6857808060200190518101906114c49190611a10565b610e685760405162461bcd60e51b815260206004820152602a60248201527f5361666545524332303a204552433230206f7065726174696f6e20646964206e6044820152691bdd081cdd58d8d9595960b21b6064820152608401610685565b6060611532848460008561153a565b949350505050565b60608247101561159b5760405162461bcd60e51b815260206004820152602660248201527f416464726573733a20696e73756666696369656e742062616c616e636520666f6044820152651c8818d85b1b60d21b6064820152608401610685565b600080866001600160a01b031685876040516115b79190611a56565b60006040518083038185875af1925050503d80600081146115f4576040519150601f19603f3d011682016040523d82523d6000602084013e6115f9565b606091505b509150915061160a87838387611615565b979650505050505050565b6060831561168457825160000361167d576001600160a01b0385163b61167d5760405162461bcd60e51b815260206004820152601d60248201527f416464726573733a2063616c6c20746f206e6f6e2d636f6e74726163740000006044820152606401610685565b5081611532565b61153283838151156116995781518083602001fd5b8060405162461bcd60e51b81526004016106859190611a72565b80356001600160a01b03811681146116ca57600080fd5b919050565b6000602082840312156116e157600080fd5b610a91826116b3565b805115158252602081015161170a60208401826001600160a01b03169052565b50604081015161172560408401826001600160a01b03169052565b50606081015160608301526080810151608083015260a081015160a083015260c081015160c083015260e081015160e0830152610100808201516117708285018263ffffffff169052565b50506101208181015160ff81168483015261144b565b6020808252825182820181905260009190848201906040850190845b818110156117c9576117b58385516116ea565b9284019261014092909201916001016117a2565b50909695505050505050565b6000602082840312156117e757600080fd5b5035919050565b602080825282518282018190526000919060409081850190868401855b8281101561185c5781516118208582516116ea565b808701511515610140860152858101516001600160a01b0316610160860152606001516101808501526101a0909301929085019060010161180b565b5091979650505050505050565b6101a0810161187882876116ea565b9315156101408201526001600160a01b039290921661016083015261018090910152919050565b60008060008060008060c087890312156118b857600080fd5b6118c1876116b3565b95506020870135945060408701359350606087013592506080870135915060a087013563ffffffff811681146118f657600080fd5b809150509295509295509295565b634e487b7160e01b600052603260045260246000fd5b634e487b7160e01b600052601160045260246000fd5b808201808211156119435761194361191a565b92915050565b80820281158282048414176119435761194361191a565b60008261197d57634e487b7160e01b600052601260045260246000fd5b500490565b6001600160a01b039384168152919092166020820152604081019190915260600190565b805169ffffffffffffffffffff811681146116ca57600080fd5b600080600080600060a086880312156119d857600080fd5b6119e1866119a6565b9450602086015193506040860151925060608601519150611a04608087016119a6565b90509295509295909350565b600060208284031215611a2257600080fd5b81518015158114610a9157600080fd5b60005b83811015611a4d578181015183820152602001611a35565b50506000910152565b60008251611a68818460208701611a32565b9190910192915050565b6020815260008251806020840152611a91816040850160208701611a32565b601f01601f1916919091016040019291505056fea26469706673582212205e65e5002d75d5b7a1fb20a3955f169fa687a39c34ad8f17d8f8bddc7a0ab0c164736f6c63430008120033",
  "linkReferences": {},
  "deployedLinkReferences": {}
}