{
    "_format": "hh-sol-artifact-1",
    "contractName": "MetaExchange",
    "sourceName": "contracts/MetaExchange.sol",
    "abi": [
        {
            "inputs": [
                {
                    "internalType": "address",
                    "name": "_wethAddress",
                    "type": "address"
                },
                {
                    "internalType": "address[]",
                    "name": "_allowedAddresses",
                    "type": "address[]"
                },
                {
                    "internalType": "address",
                    "name": "peggyAddress",
                    "type": "address"
                }
            ],
            "stateMutability": "nonpayable",
            "type": "constructor"
        },
        {
            "inputs": [],
            "name": "DAYS_PER_YEAR",
            "outputs": [
                {
                    "internalType": "uint32",
                    "name": "",
                    "type": "uint32"
                }
            ],
            "stateMutability": "view",
            "type": "function"
        },
        {
            "inputs": [
                {
                    "internalType": "uint256",
                    "name": "offerIndex",
                    "type": "uint256"
                }
            ],
            "name": "acceptOffer",
            "outputs": [],
            "stateMutability": "nonpayable",
            "type": "function"
        },
        {
            "inputs": [
                {
                    "internalType": "address",
                    "name": "",
                    "type": "address"
                }
            ],
            "name": "allowedAddresses",
            "outputs": [
                {
                    "internalType": "bool",
                    "name": "",
                    "type": "bool"
                }
            ],
            "stateMutability": "view",
            "type": "function"
        },
        {
            "inputs": [
                {
                    "internalType": "uint256",
                    "name": "offerIndex",
                    "type": "uint256"
                }
            ],
            "name": "cancelOffer",
            "outputs": [],
            "stateMutability": "nonpayable",
            "type": "function"
        },
        {
            "inputs": [],
            "name": "getLoans",
            "outputs": [
                {
                    "components": [
                        {
                            "components": [
                                {
                                    "internalType": "bool",
                                    "name": "isActive",
                                    "type": "bool"
                                },
                                {
                                    "internalType": "address",
                                    "name": "borrower",
                                    "type": "address"
                                },
                                {
                                    "internalType": "address",
                                    "name": "nftAddress",
                                    "type": "address"
                                },
                                {
                                    "internalType": "uint256",
                                    "name": "tokenId",
                                    "type": "uint256"
                                },
                                {
                                    "internalType": "uint256",
                                    "name": "tokenValuation",
                                    "type": "uint256"
                                },
                                {
                                    "internalType": "uint256",
                                    "name": "tokenFloorPrice",
                                    "type": "uint256"
                                },
                                {
                                    "internalType": "uint256",
                                    "name": "loanValue",
                                    "type": "uint256"
                                },
                                {
                                    "internalType": "string",
                                    "name": "injectiveAddress",
                                    "type": "string"
                                },
                                {
                                    "internalType": "uint32",
                                    "name": "duration",
                                    "type": "uint32"
                                },
                                {
                                    "internalType": "uint8",
                                    "name": "interestRate",
                                    "type": "uint8"
                                }
                            ],
                            "internalType": "struct Offer",
                            "name": "offer",
                            "type": "tuple"
                        },
                        {
                            "internalType": "bool",
                            "name": "isActive",
                            "type": "bool"
                        },
                        {
                            "internalType": "address",
                            "name": "lender",
                            "type": "address"
                        },
                        {
                            "internalType": "uint256",
                            "name": "initialDate",
                            "type": "uint256"
                        }
                    ],
                    "internalType": "struct Loan[]",
                    "name": "",
                    "type": "tuple[]"
                }
            ],
            "stateMutability": "view",
            "type": "function"
        },
        {
            "inputs": [],
            "name": "getOffers",
            "outputs": [
                {
                    "components": [
                        {
                            "internalType": "bool",
                            "name": "isActive",
                            "type": "bool"
                        },
                        {
                            "internalType": "address",
                            "name": "borrower",
                            "type": "address"
                        },
                        {
                            "internalType": "address",
                            "name": "nftAddress",
                            "type": "address"
                        },
                        {
                            "internalType": "uint256",
                            "name": "tokenId",
                            "type": "uint256"
                        },
                        {
                            "internalType": "uint256",
                            "name": "tokenValuation",
                            "type": "uint256"
                        },
                        {
                            "internalType": "uint256",
                            "name": "tokenFloorPrice",
                            "type": "uint256"
                        },
                        {
                            "internalType": "uint256",
                            "name": "loanValue",
                            "type": "uint256"
                        },
                        {
                            "internalType": "string",
                            "name": "injectiveAddress",
                            "type": "string"
                        },
                        {
                            "internalType": "uint32",
                            "name": "duration",
                            "type": "uint32"
                        },
                        {
                            "internalType": "uint8",
                            "name": "interestRate",
                            "type": "uint8"
                        }
                    ],
                    "internalType": "struct Offer[]",
                    "name": "",
                    "type": "tuple[]"
                }
            ],
            "stateMutability": "view",
            "type": "function"
        },
        {
            "inputs": [],
            "name": "interestRate",
            "outputs": [
                {
                    "internalType": "uint8",
                    "name": "",
                    "type": "uint8"
                }
            ],
            "stateMutability": "view",
            "type": "function"
        },
        {
            "inputs": [
                {
                    "internalType": "uint256",
                    "name": "loanIndex",
                    "type": "uint256"
                }
            ],
            "name": "liquidateDefaultedPosition",
            "outputs": [],
            "stateMutability": "nonpayable",
            "type": "function"
        },
        {
            "inputs": [
                {
                    "internalType": "uint256",
                    "name": "",
                    "type": "uint256"
                }
            ],
            "name": "loans",
            "outputs": [
                {
                    "components": [
                        {
                            "internalType": "bool",
                            "name": "isActive",
                            "type": "bool"
                        },
                        {
                            "internalType": "address",
                            "name": "borrower",
                            "type": "address"
                        },
                        {
                            "internalType": "address",
                            "name": "nftAddress",
                            "type": "address"
                        },
                        {
                            "internalType": "uint256",
                            "name": "tokenId",
                            "type": "uint256"
                        },
                        {
                            "internalType": "uint256",
                            "name": "tokenValuation",
                            "type": "uint256"
                        },
                        {
                            "internalType": "uint256",
                            "name": "tokenFloorPrice",
                            "type": "uint256"
                        },
                        {
                            "internalType": "uint256",
                            "name": "loanValue",
                            "type": "uint256"
                        },
                        {
                            "internalType": "string",
                            "name": "injectiveAddress",
                            "type": "string"
                        },
                        {
                            "internalType": "uint32",
                            "name": "duration",
                            "type": "uint32"
                        },
                        {
                            "internalType": "uint8",
                            "name": "interestRate",
                            "type": "uint8"
                        }
                    ],
                    "internalType": "struct Offer",
                    "name": "offer",
                    "type": "tuple"
                },
                {
                    "internalType": "bool",
                    "name": "isActive",
                    "type": "bool"
                },
                {
                    "internalType": "address",
                    "name": "lender",
                    "type": "address"
                },
                {
                    "internalType": "uint256",
                    "name": "initialDate",
                    "type": "uint256"
                }
            ],
            "stateMutability": "view",
            "type": "function"
        },
        {
            "inputs": [
                {
                    "internalType": "address",
                    "name": "_nftAddress",
                    "type": "address"
                },
                {
                    "internalType": "uint256",
                    "name": "_tokenId",
                    "type": "uint256"
                },
                {
                    "internalType": "uint256",
                    "name": "_tokenValuation",
                    "type": "uint256"
                },
                {
                    "internalType": "uint256",
                    "name": "_loanValue",
                    "type": "uint256"
                },
                {
                    "internalType": "string",
                    "name": "_injectiveAddress",
                    "type": "string"
                },
                {
                    "internalType": "uint32",
                    "name": "_duration",
                    "type": "uint32"
                }
            ],
            "name": "makeOffer",
            "outputs": [],
            "stateMutability": "nonpayable",
            "type": "function"
        },
        {
            "inputs": [],
            "name": "maxBorrowPercentage",
            "outputs": [
                {
                    "internalType": "uint256",
                    "name": "",
                    "type": "uint256"
                }
            ],
            "stateMutability": "view",
            "type": "function"
        },
        {
            "inputs": [
                {
                    "internalType": "uint256",
                    "name": "",
                    "type": "uint256"
                }
            ],
            "name": "offers",
            "outputs": [
                {
                    "internalType": "bool",
                    "name": "isActive",
                    "type": "bool"
                },
                {
                    "internalType": "address",
                    "name": "borrower",
                    "type": "address"
                },
                {
                    "internalType": "address",
                    "name": "nftAddress",
                    "type": "address"
                },
                {
                    "internalType": "uint256",
                    "name": "tokenId",
                    "type": "uint256"
                },
                {
                    "internalType": "uint256",
                    "name": "tokenValuation",
                    "type": "uint256"
                },
                {
                    "internalType": "uint256",
                    "name": "tokenFloorPrice",
                    "type": "uint256"
                },
                {
                    "internalType": "uint256",
                    "name": "loanValue",
                    "type": "uint256"
                },
                {
                    "internalType": "string",
                    "name": "injectiveAddress",
                    "type": "string"
                },
                {
                    "internalType": "uint32",
                    "name": "duration",
                    "type": "uint32"
                },
                {
                    "internalType": "uint8",
                    "name": "interestRate",
                    "type": "uint8"
                }
            ],
            "stateMutability": "view",
            "type": "function"
        },
        {
            "inputs": [],
            "name": "peggyBridge",
            "outputs": [
                {
                    "internalType": "contract Peggy",
                    "name": "",
                    "type": "address"
                }
            ],
            "stateMutability": "view",
            "type": "function"
        },
        {
            "inputs": [
                {
                    "internalType": "uint256",
                    "name": "loanIndex",
                    "type": "uint256"
                }
            ],
            "name": "repayLoan",
            "outputs": [],
            "stateMutability": "nonpayable",
            "type": "function"
        },
        {
            "inputs": [],
            "name": "weth",
            "outputs": [
                {
                    "internalType": "contract IERC20",
                    "name": "",
                    "type": "address"
                }
            ],
            "stateMutability": "view",
            "type": "function"
        }
    ],
    "bytecode": "0x60a06040526005600460006101000a81548160ff021916908360ff1602179055503480156200002d57600080fd5b506040516200385238038062003852833981810160405281019062000053919062000356565b8273ffffffffffffffffffffffffffffffffffffffff1660808173ffffffffffffffffffffffffffffffffffffffff1681525050806000806101000a81548173ffffffffffffffffffffffffffffffffffffffff021916908373ffffffffffffffffffffffffffffffffffffffff16021790555060005b82518110156200015e576001806000858481518110620000ef57620000ee620003d1565b5b602002602001015173ffffffffffffffffffffffffffffffffffffffff1673ffffffffffffffffffffffffffffffffffffffff16815260200190815260200160002060006101000a81548160ff0219169083151502179055508080620001559062000439565b915050620000ca565b5050505062000486565b6000604051905090565b600080fd5b600080fd5b600073ffffffffffffffffffffffffffffffffffffffff82169050919050565b6000620001a9826200017c565b9050919050565b620001bb816200019c565b8114620001c757600080fd5b50565b600081519050620001db81620001b0565b92915050565b600080fd5b6000601f19601f8301169050919050565b7f4e487b7100000000000000000000000000000000000000000000000000000000600052604160045260246000fd5b6200023182620001e6565b810181811067ffffffffffffffff82111715620002535762000252620001f7565b5b80604052505050565b60006200026862000168565b905062000276828262000226565b919050565b600067ffffffffffffffff821115620002995762000298620001f7565b5b602082029050602081019050919050565b600080fd5b6000620002c6620002c0846200027b565b6200025c565b90508083825260208201905060208402830185811115620002ec57620002eb620002aa565b5b835b81811015620003195780620003048882620001ca565b845260208401935050602081019050620002ee565b5050509392505050565b600082601f8301126200033b576200033a620001e1565b5b81516200034d848260208601620002af565b91505092915050565b60008060006060848603121562000372576200037162000172565b5b60006200038286828701620001ca565b935050602084015167ffffffffffffffff811115620003a657620003a562000177565b5b620003b48682870162000323565b9250506040620003c786828701620001ca565b9150509250925092565b7f4e487b7100000000000000000000000000000000000000000000000000000000600052603260045260246000fd5b7f4e487b7100000000000000000000000000000000000000000000000000000000600052601160045260246000fd5b6000819050919050565b600062000446826200042f565b91507fffffffffffffffffffffffffffffffffffffffffffffffffffffffffffffffff82036200047b576200047a62000400565b5b600182019050919050565b60805161339b620004b76000396000818161051f01528181610f310152818161169c01526116e3015261339b6000f3fe608060405234801561001057600080fd5b50600436106100f55760003560e01c80638a72ea6a11610097578063c6846ef811610066578063c6846ef81461026b578063c815729d14610289578063e1ec3c68146102a5578063ef706adf146102d8576100f5565b80638a72ea6a146101dc578063aa4a871114610215578063ab7b1c8914610233578063c2d60cdb1461024f576100f5565b80634120657a116100d35780634120657a146101545780635bfb504e146101845780635f1ee882146101a05780637c3a00fd146101be576100f5565b80632d36031a146100fa5780633ee992ee146101185780633fc8cef314610136575b600080fd5b6101026102f4565b60405161010f9190611eeb565b60405180910390f35b6101206102f9565b60405161012d91906121d8565b60405180910390f35b61013e61051d565b60405161014b9190612259565b60405180910390f35b61016e600480360381019061016991906122aa565b610541565b60405161017b91906122e6565b60405180910390f35b61019e600480360381019061019991906123be565b610561565b005b6101a8610967565b6040516101b5919061248e565b60405180910390f35b6101c661098b565b6040516101d391906124b8565b60405180910390f35b6101f660048036038101906101f191906124d3565b61099e565b60405161020c9a99989796959493929190612568565b60405180910390f35b61021d610af4565b60405161022a9190612730565b60405180910390f35b61024d600480360381019061024891906124d3565b610da7565b005b610269600480360381019061026491906124d3565b611020565b005b61027361125e565b6040516102809190612752565b60405180910390f35b6102a3600480360381019061029e91906124d3565b611264565b005b6102bf60048036038101906102ba91906124d3565b6117a8565b6040516102cf9493929190612847565b60405180910390f35b6102f260048036038101906102ed91906124d3565b6119e4565b005b603c81565b60606002805480602002602001604051908101604052809291908181526020016000905b828210156105145783829060005260206000209060080201604051806101400160405290816000820160009054906101000a900460ff161515151581526020016000820160019054906101000a900473ffffffffffffffffffffffffffffffffffffffff1673ffffffffffffffffffffffffffffffffffffffff1673ffffffffffffffffffffffffffffffffffffffff1681526020016001820160009054906101000a900473ffffffffffffffffffffffffffffffffffffffff1673ffffffffffffffffffffffffffffffffffffffff1673ffffffffffffffffffffffffffffffffffffffff16815260200160028201548152602001600382015481526020016004820154815260200160058201548152602001600682018054610440906128c2565b80601f016020809104026020016040519081016040528092919081815260200182805461046c906128c2565b80156104b95780601f1061048e576101008083540402835291602001916104b9565b820191906000526020600020905b81548152906001019060200180831161049c57829003601f168201915b505050505081526020016007820160009054906101000a900463ffffffff1663ffffffff1663ffffffff1681526020016007820160049054906101000a900460ff1660ff1660ff16815250508152602001906001019061031d565b50505050905090565b7f000000000000000000000000000000000000000000000000000000000000000081565b60016020528060005260406000206000915054906101000a900460ff1681565b600160008873ffffffffffffffffffffffffffffffffffffffff1673ffffffffffffffffffffffffffffffffffffffff16815260200190815260200160002060009054906101000a900460ff166105ed576040517f08c379a00000000000000000000000000000000000000000000000000000000081526004016105e49061293f565b60405180910390fd5b6064603c866105fc919061298e565b61060691906129ff565b8410610647576040517f08c379a000000000000000000000000000000000000000000000000000000000815260040161063e90612aa2565b60405180910390fd5b62278d008163ffffffff16101580610668575062ed4e008163ffffffff1611155b6106a7576040517f08c379a000000000000000000000000000000000000000000000000000000000815260040161069e90612b34565b60405180910390fd5b60008790508073ffffffffffffffffffffffffffffffffffffffff166342842e0e33308a6040518463ffffffff1660e01b81526004016106e993929190612b54565b600060405180830381600087803b15801561070357600080fd5b505af1158015610717573d6000803e3d6000fd5b50505050600061072689611bab565b905060026040518061014001604052806001151581526020013373ffffffffffffffffffffffffffffffffffffffff1681526020018b73ffffffffffffffffffffffffffffffffffffffff1681526020018a815260200189815260200183815260200188815260200187878080601f016020809104026020016040519081016040528093929190818152602001838380828437600081840152601f19601f8201169050808301925050505050505081526020018563ffffffff168152602001600460009054906101000a900460ff1660ff16815250908060018154018082558091505060019003906000526020600020906008020160009091909190915060008201518160000160006101000a81548160ff02191690831515021790555060208201518160000160016101000a81548173ffffffffffffffffffffffffffffffffffffffff021916908373ffffffffffffffffffffffffffffffffffffffff16021790555060408201518160010160006101000a81548173ffffffffffffffffffffffffffffffffffffffff021916908373ffffffffffffffffffffffffffffffffffffffff160217905550606082015181600201556080820151816003015560a0820151816004015560c0820151816005015560e082015181600601908161090f9190612d5c565b506101008201518160070160006101000a81548163ffffffff021916908363ffffffff1602179055506101208201518160070160046101000a81548160ff021916908360ff1602179055505050505050505050505050565b60008054906101000a900473ffffffffffffffffffffffffffffffffffffffff1681565b600460009054906101000a900460ff1681565b600281815481106109ae57600080fd5b90600052602060002090600802016000915090508060000160009054906101000a900460ff16908060000160019054906101000a900473ffffffffffffffffffffffffffffffffffffffff16908060010160009054906101000a900473ffffffffffffffffffffffffffffffffffffffff1690806002015490806003015490806004015490806005015490806006018054610a48906128c2565b80601f0160208091040260200160405190810160405280929190818152602001828054610a74906128c2565b8015610ac15780601f10610a9657610100808354040283529160200191610ac1565b820191906000526020600020905b815481529060010190602001808311610aa457829003601f168201915b5050505050908060070160009054906101000a900463ffffffff16908060070160049054906101000a900460ff1690508a565b60606003805480602002602001604051908101604052809291908181526020016000905b82821015610d9e57838290600052602060002090600a020160405180608001604052908160008201604051806101400160405290816000820160009054906101000a900460ff161515151581526020016000820160019054906101000a900473ffffffffffffffffffffffffffffffffffffffff1673ffffffffffffffffffffffffffffffffffffffff1673ffffffffffffffffffffffffffffffffffffffff1681526020016001820160009054906101000a900473ffffffffffffffffffffffffffffffffffffffff1673ffffffffffffffffffffffffffffffffffffffff1673ffffffffffffffffffffffffffffffffffffffff16815260200160028201548152602001600382015481526020016004820154815260200160058201548152602001600682018054610c4b906128c2565b80601f0160208091040260200160405190810160405280929190818152602001828054610c77906128c2565b8015610cc45780601f10610c9957610100808354040283529160200191610cc4565b820191906000526020600020905b815481529060010190602001808311610ca757829003601f168201915b505050505081526020016007820160009054906101000a900463ffffffff1663ffffffff1663ffffffff1681526020016007820160049054906101000a900460ff1660ff1660ff168152505081526020016008820160009054906101000a900460ff161515151581526020016008820160019054906101000a900473ffffffffffffffffffffffffffffffffffffffff1673ffffffffffffffffffffffffffffffffffffffff1673ffffffffffffffffffffffffffffffffffffffff16815260200160098201548152505081526020019060010190610b18565b50505050905090565b600060038281548110610dbd57610dbc612e2e565b5b90600052602060002090600a02019050428160000160070160009054906101000a900463ffffffff1663ffffffff168260090154610dfb9190612e5d565b1115610e0657600080fd5b8060080160009054906101000a900460ff16610e57576040517f08c379a0000000000000000000000000000000000000000000000000000000008152600401610e4e90612edd565b60405180910390fd5b60008160080160006101000a81548160ff021916908315150217905550600060648260000160070160049054906101000a900460ff1660ff168360000160050154610ea2919061298e565b610eac91906129ff565b9050600061016d63ffffffff168360000160070160009054906101000a900463ffffffff1663ffffffff1683610ee2919061298e565b610eec91906129ff565b90506000818460000160050154610f039190612e5d565b9050610f76338560080160019054906101000a900473ffffffffffffffffffffffffffffffffffffffff16837f000000000000000000000000000000000000000000000000000000000000000073ffffffffffffffffffffffffffffffffffffffff16611bb5909392919063ffffffff16565b60008460000160010160009054906101000a900473ffffffffffffffffffffffffffffffffffffffff1690508073ffffffffffffffffffffffffffffffffffffffff166342842e0e303388600001600201546040518463ffffffff1660e01b8152600401610fe693929190612b54565b600060405180830381600087803b15801561100057600080fd5b505af1158015611014573d6000803e3d6000fd5b50505050505050505050565b60006003828154811061103657611035612e2e565b5b90600052602060002090600a020190508060080160009054906101000a900460ff16611097576040517f08c379a000000000000000000000000000000000000000000000000000000000815260040161108e90612f49565b60405180910390fd5b60008160080160006101000a81548160ff02191690831515021790555060006110e68260000160010160009054906101000a900473ffffffffffffffffffffffffffffffffffffffff16611bab565b905060008260000160040154828460000160030154611105919061298e565b61110f91906129ff565b905080836000016005015411806111525750428360000160070160009054906101000a900463ffffffff1663ffffffff16846009015461114f9190612e5d565b10155b611191576040517f08c379a000000000000000000000000000000000000000000000000000000000815260040161118890612fdb565b60405180910390fd5b60008360000160010160009054906101000a900473ffffffffffffffffffffffffffffffffffffffff1690508073ffffffffffffffffffffffffffffffffffffffff166342842e0e308660080160019054906101000a900473ffffffffffffffffffffffffffffffffffffffff1687600001600201546040518463ffffffff1660e01b815260040161122593929190612b54565b600060405180830381600087803b15801561123f57600080fd5b505af1158015611253573d6000803e3d6000fd5b505050505050505050565b61016d81565b60006002828154811061127a57611279612e2e565b5b9060005260206000209060080201905060008160000160006101000a81548160ff0219169083151502179055506003604051806080016040528083604051806101400160405290816000820160009054906101000a900460ff161515151581526020016000820160019054906101000a900473ffffffffffffffffffffffffffffffffffffffff1673ffffffffffffffffffffffffffffffffffffffff1673ffffffffffffffffffffffffffffffffffffffff1681526020016001820160009054906101000a900473ffffffffffffffffffffffffffffffffffffffff1673ffffffffffffffffffffffffffffffffffffffff1673ffffffffffffffffffffffffffffffffffffffff168152602001600282015481526020016003820154815260200160048201548152602001600582015481526020016006820180546113c0906128c2565b80601f01602080910402602001604051908101604052809291908181526020018280546113ec906128c2565b80156114395780601f1061140e57610100808354040283529160200191611439565b820191906000526020600020905b81548152906001019060200180831161141c57829003601f168201915b505050505081526020016007820160009054906101000a900463ffffffff1663ffffffff1663ffffffff1681526020016007820160049054906101000a900460ff1660ff1660ff168152505081526020016001151581526020013373ffffffffffffffffffffffffffffffffffffffff1681526020014281525090806001815401808255809150506001900390600052602060002090600a020160009091909190915060008201518160000160008201518160000160006101000a81548160ff02191690831515021790555060208201518160000160016101000a81548173ffffffffffffffffffffffffffffffffffffffff021916908373ffffffffffffffffffffffffffffffffffffffff16021790555060408201518160010160006101000a81548173ffffffffffffffffffffffffffffffffffffffff021916908373ffffffffffffffffffffffffffffffffffffffff160217905550606082015181600201556080820151816003015560a0820151816004015560c0820151816005015560e08201518160060190816115d09190612d5c565b506101008201518160070160006101000a81548163ffffffff021916908363ffffffff1602179055506101208201518160070160046101000a81548160ff021916908360ff160217905550505060208201518160080160006101000a81548160ff02191690831515021790555060408201518160080160016101000a81548173ffffffffffffffffffffffffffffffffffffffff021916908373ffffffffffffffffffffffffffffffffffffffff1602179055506060820151816009015550506116e1333083600501547f000000000000000000000000000000000000000000000000000000000000000073ffffffffffffffffffffffffffffffffffffffff16611bb5909392919063ffffffff16565b7f000000000000000000000000000000000000000000000000000000000000000073ffffffffffffffffffffffffffffffffffffffff1663095ea7b360008054906101000a900473ffffffffffffffffffffffffffffffffffffffff1683600501546040518363ffffffff1660e01b8152600401611760929190612ffb565b6020604051808303816000875af115801561177f573d6000803e3d6000fd5b505050506040513d601f19601f820116820180604052508101906117a39190613050565b505050565b600381815481106117b857600080fd5b90600052602060002090600a020160009150905080600001604051806101400160405290816000820160009054906101000a900460ff161515151581526020016000820160019054906101000a900473ffffffffffffffffffffffffffffffffffffffff1673ffffffffffffffffffffffffffffffffffffffff1673ffffffffffffffffffffffffffffffffffffffff1681526020016001820160009054906101000a900473ffffffffffffffffffffffffffffffffffffffff1673ffffffffffffffffffffffffffffffffffffffff1673ffffffffffffffffffffffffffffffffffffffff168152602001600282015481526020016003820154815260200160048201548152602001600582015481526020016006820180546118db906128c2565b80601f0160208091040260200160405190810160405280929190818152602001828054611907906128c2565b80156119545780601f1061192957610100808354040283529160200191611954565b820191906000526020600020905b81548152906001019060200180831161193757829003601f168201915b505050505081526020016007820160009054906101000a900463ffffffff1663ffffffff1663ffffffff1681526020016007820160049054906101000a900460ff1660ff1660ff1681525050908060080160009054906101000a900460ff16908060080160019054906101000a900473ffffffffffffffffffffffffffffffffffffffff16908060090154905084565b6000600282815481106119fa576119f9612e2e565b5b906000526020600020906008020190508060000160009054906101000a900460ff16611a5b576040517f08c379a0000000000000000000000000000000000000000000000000000000008152600401611a52906130c9565b60405180910390fd5b8060000160019054906101000a900473ffffffffffffffffffffffffffffffffffffffff1673ffffffffffffffffffffffffffffffffffffffff163373ffffffffffffffffffffffffffffffffffffffff1614611aed576040517f08c379a0000000000000000000000000000000000000000000000000000000008152600401611ae490613135565b60405180910390fd5b60008160000160006101000a81548160ff02191690831515021790555060008160010160009054906101000a900473ffffffffffffffffffffffffffffffffffffffff1690508073ffffffffffffffffffffffffffffffffffffffff166323b872dd303385600201546040518463ffffffff1660e01b8152600401611b7493929190612b54565b600060405180830381600087803b158015611b8e57600080fd5b505af1158015611ba2573d6000803e3d6000fd5b50505050505050565b6000429050919050565b611c38846323b872dd60e01b858585604051602401611bd693929190612b54565b604051602081830303815290604052907bffffffffffffffffffffffffffffffffffffffffffffffffffffffff19166020820180517bffffffffffffffffffffffffffffffffffffffffffffffffffffffff8381831617835250505050611c3e565b50505050565b6000611ca0826040518060400160405280602081526020017f5361666545524332303a206c6f772d6c6576656c2063616c6c206661696c65648152508573ffffffffffffffffffffffffffffffffffffffff16611d059092919063ffffffff16565b9050600081511115611d005780806020019051810190611cc09190613050565b611cff576040517f08c379a0000000000000000000000000000000000000000000000000000000008152600401611cf6906131c7565b60405180910390fd5b5b505050565b6060611d148484600085611d1d565b90509392505050565b606082471015611d62576040517f08c379a0000000000000000000000000000000000000000000000000000000008152600401611d5990613259565b60405180910390fd5b6000808673ffffffffffffffffffffffffffffffffffffffff168587604051611d8b91906132c0565b60006040518083038185875af1925050503d8060008114611dc8576040519150601f19603f3d011682016040523d82523d6000602084013e611dcd565b606091505b5091509150611dde87838387611dea565b92505050949350505050565b60608315611e4c576000835103611e4457611e0485611e5f565b611e43576040517f08c379a0000000000000000000000000000000000000000000000000000000008152600401611e3a90613323565b60405180910390fd5b5b829050611e57565b611e568383611e82565b5b949350505050565b6000808273ffffffffffffffffffffffffffffffffffffffff163b119050919050565b600082511115611e955781518083602001fd5b806040517f08c379a0000000000000000000000000000000000000000000000000000000008152600401611ec99190613343565b60405180910390fd5b6000819050919050565b611ee581611ed2565b82525050565b6000602082019050611f006000830184611edc565b92915050565b600081519050919050565b600082825260208201905092915050565b6000819050602082019050919050565b60008115159050919050565b611f4781611f32565b82525050565b600073ffffffffffffffffffffffffffffffffffffffff82169050919050565b6000611f7882611f4d565b9050919050565b611f8881611f6d565b82525050565b611f9781611ed2565b82525050565b600081519050919050565b600082825260208201905092915050565b60005b83811015611fd7578082015181840152602081019050611fbc565b60008484015250505050565b6000601f19601f8301169050919050565b6000611fff82611f9d565b6120098185611fa8565b9350612019818560208601611fb9565b61202281611fe3565b840191505092915050565b600063ffffffff82169050919050565b6120468161202d565b82525050565b600060ff82169050919050565b6120628161204c565b82525050565b6000610140830160008301516120816000860182611f3e565b5060208301516120946020860182611f7f565b5060408301516120a76040860182611f7f565b5060608301516120ba6060860182611f8e565b5060808301516120cd6080860182611f8e565b5060a08301516120e060a0860182611f8e565b5060c08301516120f360c0860182611f8e565b5060e083015184820360e086015261210b8282611ff4565b91505061010083015161212261010086018261203d565b50610120830151612137610120860182612059565b508091505092915050565b600061214e8383612068565b905092915050565b6000602082019050919050565b600061216e82611f06565b6121788185611f11565b93508360208202850161218a85611f22565b8060005b858110156121c657848403895281516121a78582612142565b94506121b283612156565b925060208a0199505060018101905061218e565b50829750879550505050505092915050565b600060208201905081810360008301526121f28184612163565b905092915050565b6000819050919050565b600061221f61221a61221584611f4d565b6121fa565b611f4d565b9050919050565b600061223182612204565b9050919050565b600061224382612226565b9050919050565b61225381612238565b82525050565b600060208201905061226e600083018461224a565b92915050565b600080fd5b600080fd5b61228781611f6d565b811461229257600080fd5b50565b6000813590506122a48161227e565b92915050565b6000602082840312156122c0576122bf612274565b5b60006122ce84828501612295565b91505092915050565b6122e081611f32565b82525050565b60006020820190506122fb60008301846122d7565b92915050565b61230a81611ed2565b811461231557600080fd5b50565b60008135905061232781612301565b92915050565b600080fd5b600080fd5b600080fd5b60008083601f8401126123525761235161232d565b5b8235905067ffffffffffffffff81111561236f5761236e612332565b5b60208301915083600182028301111561238b5761238a612337565b5b9250929050565b61239b8161202d565b81146123a657600080fd5b50565b6000813590506123b881612392565b92915050565b600080600080600080600060c0888a0312156123dd576123dc612274565b5b60006123eb8a828b01612295565b97505060206123fc8a828b01612318565b965050604061240d8a828b01612318565b955050606061241e8a828b01612318565b945050608088013567ffffffffffffffff81111561243f5761243e612279565b5b61244b8a828b0161233c565b935093505060a061245e8a828b016123a9565b91505092959891949750929550565b600061247882612226565b9050919050565b6124888161246d565b82525050565b60006020820190506124a3600083018461247f565b92915050565b6124b28161204c565b82525050565b60006020820190506124cd60008301846124a9565b92915050565b6000602082840312156124e9576124e8612274565b5b60006124f784828501612318565b91505092915050565b61250981611f6d565b82525050565b600082825260208201905092915050565b600061252b82611f9d565b612535818561250f565b9350612545818560208601611fb9565b61254e81611fe3565b840191505092915050565b6125628161202d565b82525050565b60006101408201905061257e600083018d6122d7565b61258b602083018c612500565b612598604083018b612500565b6125a5606083018a611edc565b6125b26080830189611edc565b6125bf60a0830188611edc565b6125cc60c0830187611edc565b81810360e08301526125de8186612520565b90506125ee610100830185612559565b6125fc6101208301846124a9565b9b9a5050505050505050505050565b600081519050919050565b600082825260208201905092915050565b6000819050602082019050919050565b600060808301600083015184820360008601526126548282612068565b91505060208301516126696020860182611f3e565b50604083015161267c6040860182611f7f565b50606083015161268f6060860182611f8e565b508091505092915050565b60006126a68383612637565b905092915050565b6000602082019050919050565b60006126c68261260b565b6126d08185612616565b9350836020820285016126e285612627565b8060005b8581101561271e57848403895281516126ff858261269a565b945061270a836126ae565b925060208a019950506001810190506126e6565b50829750879550505050505092915050565b6000602082019050818103600083015261274a81846126bb565b905092915050565b60006020820190506127676000830184612559565b92915050565b6000610140830160008301516127866000860182611f3e565b5060208301516127996020860182611f7f565b5060408301516127ac6040860182611f7f565b5060608301516127bf6060860182611f8e565b5060808301516127d26080860182611f8e565b5060a08301516127e560a0860182611f8e565b5060c08301516127f860c0860182611f8e565b5060e083015184820360e08601526128108282611ff4565b91505061010083015161282761010086018261203d565b5061012083015161283c610120860182612059565b508091505092915050565b60006080820190508181036000830152612861818761276d565b905061287060208301866122d7565b61287d6040830185612500565b61288a6060830184611edc565b95945050505050565b7f4e487b7100000000000000000000000000000000000000000000000000000000600052602260045260246000fd5b600060028204905060018216806128da57607f821691505b6020821081036128ed576128ec612893565b5b50919050565b7f4e465420636f6c6c656374696f6e206e6f7420737570706f7274656400000000600082015250565b6000612929601c8361250f565b9150612934826128f3565b602082019050919050565b600060208201905081810360008301526129588161291c565b9050919050565b7f4e487b7100000000000000000000000000000000000000000000000000000000600052601160045260246000fd5b600061299982611ed2565b91506129a483611ed2565b92508282026129b281611ed2565b915082820484148315176129c9576129c861295f565b5b5092915050565b7f4e487b7100000000000000000000000000000000000000000000000000000000600052601260045260246000fd5b6000612a0a82611ed2565b9150612a1583611ed2565b925082612a2557612a246129d0565b5b828204905092915050565b7f4c6f616e2073686f756c64206265206c657373207468616e20363025206f662060008201527f746f6b656e2076616c756174696f6e0000000000000000000000000000000000602082015250565b6000612a8c602f8361250f565b9150612a9782612a30565b604082019050919050565b60006020820190508181036000830152612abb81612a7f565b9050919050565b7f4475726174696f6e206d7573742062652077697468696e20333020616e64203160008201527f3830206461797300000000000000000000000000000000000000000000000000602082015250565b6000612b1e60278361250f565b9150612b2982612ac2565b604082019050919050565b60006020820190508181036000830152612b4d81612b11565b9050919050565b6000606082019050612b696000830186612500565b612b766020830185612500565b612b836040830184611edc565b949350505050565b7f4e487b7100000000000000000000000000000000000000000000000000000000600052604160045260246000fd5b60008190508160005260206000209050919050565b60006020601f8301049050919050565b600082821b905092915050565b600060088302612c1c7fffffffffffffffffffffffffffffffffffffffffffffffffffffffffffffffff82612bdf565b612c268683612bdf565b95508019841693508086168417925050509392505050565b6000612c59612c54612c4f84611ed2565b6121fa565b611ed2565b9050919050565b6000819050919050565b612c7383612c3e565b612c87612c7f82612c60565b848454612bec565b825550505050565b600090565b612c9c612c8f565b612ca7818484612c6a565b505050565b5b81811015612ccb57612cc0600082612c94565b600181019050612cad565b5050565b601f821115612d1057612ce181612bba565b612cea84612bcf565b81016020851015612cf9578190505b612d0d612d0585612bcf565b830182612cac565b50505b505050565b600082821c905092915050565b6000612d3360001984600802612d15565b1980831691505092915050565b6000612d4c8383612d22565b9150826002028217905092915050565b612d6582611f9d565b67ffffffffffffffff811115612d7e57612d7d612b8b565b5b612d8882546128c2565b612d93828285612ccf565b600060209050601f831160018114612dc65760008415612db4578287015190505b612dbe8582612d40565b865550612e26565b601f198416612dd486612bba565b60005b82811015612dfc57848901518255600182019150602085019450602081019050612dd7565b86831015612e195784890151612e15601f891682612d22565b8355505b6001600288020188555050505b505050505050565b7f4e487b7100000000000000000000000000000000000000000000000000000000600052603260045260246000fd5b6000612e6882611ed2565b9150612e7383611ed2565b9250828201905080821115612e8b57612e8a61295f565b5b92915050565b7f4c6f616e206973206e6f74206163746976650000000000000000000000000000600082015250565b6000612ec760128361250f565b9150612ed282612e91565b602082019050919050565b60006020820190508181036000830152612ef681612eba565b9050919050565b7f4c6f616e2077617320616c7265616479206c6971756964617465640000000000600082015250565b6000612f33601b8361250f565b9150612f3e82612efd565b602082019050919050565b60006020820190508181036000830152612f6281612f26565b9050919050565b7f506f736974696f6e207374696c6c206865616c746879206f722074696d65206e60008201527f6f7420656c617073656400000000000000000000000000000000000000000000602082015250565b6000612fc5602a8361250f565b9150612fd082612f69565b604082019050919050565b60006020820190508181036000830152612ff481612fb8565b9050919050565b60006040820190506130106000830185612500565b61301d6020830184611edc565b9392505050565b61302d81611f32565b811461303857600080fd5b50565b60008151905061304a81613024565b92915050565b60006020828403121561306657613065612274565b5b60006130748482850161303b565b91505092915050565b7f4f66666572206973206e6f742061637469766500000000000000000000000000600082015250565b60006130b360138361250f565b91506130be8261307d565b602082019050919050565b600060208201905081810360008301526130e2816130a6565b9050919050565b7f4f66666572206e6f74206f776e6564206279206d73672e73656e646572000000600082015250565b600061311f601d8361250f565b915061312a826130e9565b602082019050919050565b6000602082019050818103600083015261314e81613112565b9050919050565b7f5361666545524332303a204552433230206f7065726174696f6e20646964206e60008201527f6f74207375636365656400000000000000000000000000000000000000000000602082015250565b60006131b1602a8361250f565b91506131bc82613155565b604082019050919050565b600060208201905081810360008301526131e0816131a4565b9050919050565b7f416464726573733a20696e73756666696369656e742062616c616e636520666f60008201527f722063616c6c0000000000000000000000000000000000000000000000000000602082015250565b600061324360268361250f565b915061324e826131e7565b604082019050919050565b6000602082019050818103600083015261327281613236565b9050919050565b600081519050919050565b600081905092915050565b600061329a82613279565b6132a48185613284565b93506132b4818560208601611fb9565b80840191505092915050565b60006132cc828461328f565b915081905092915050565b7f416464726573733a2063616c6c20746f206e6f6e2d636f6e7472616374000000600082015250565b600061330d601d8361250f565b9150613318826132d7565b602082019050919050565b6000602082019050818103600083015261333c81613300565b9050919050565b6000602082019050818103600083015261335d8184612520565b90509291505056fea26469706673582212205a6a41b5a0c002179996d5dd48df92b135ef91360624cd0a9a284aa4307d8d1c64736f6c63430008120033",
    "linkReferences": {},
    "deployedLinkReferences": {}
}